:020000040000FA
:1000000005280000000000005728831670308F007C
:1000100007308312990083169F01831298141811D8
:100020009811181618149814831681170117811245
:100030000112811101148114011583161511831603
:1000400005108510051585150512851283128B176D
:100050000B138B160B168B15831616109610161194
:100060009615161296126400831298146400831277
:1000700085100512851283120A30A20083120E30F9
:10008000A30083120A30A4001E30A9000230AA0087
:100090000030AB000030AC0083120430A700013008
:1000A00029218312851405105528640055288312D0
:1000B000831226088312A500831205088312A60066
:1000C00083120B1968288B186E280B1877280F29B4
:1000D000A90B6B281821831281010F2983120B10A1
:1000E00083120B128312A718E428B9280F29A61D22
:1000F0007F28A6197C288312831281010F2983127D
:1001000001088312A800053028028312031CB628B8
:100110001130280283120318B628220828028312FD
:10012000031C9F2823082802831203189A280230F0
:10013000AA000F292B1CA428AA0B0F29B9282B18B9
:10014000A928AA0B0F29E4280230AA000130AB002D
:100150000F290230AA000030AB000F29A80BB128EC
:100160000F290514000000000510AE280230AA0077
:100170000F290230AA00831285101430292183121E
:100180002710A71427118312051483128516013036
:100190002921831285126430292183128514640079
:1001A0001C21643029211C21643029211C21643048
:1001B000640029211C21643029211C21643029215B
:1001C0001C21831281010F290230AA00831285109D
:1001D0001430292183122714A71027118312051028
:1001E000831205160130292183120512643029215A
:1001F0006400831285141C21643029211C21643081
:1002000029211C216430640029211C21643029210A
:100210001C21643029211C21831281010F296400D3
:1002200083128B100B110B108B170B110B1609007F
:100230001E30A9001C210800831605118312051524
:100240000A30292183120511831605150A30292148
:100250000800A1002E21A10B2A2908009930A00036
:0E026000A00B3029A00B3229A00B3429080076
:02400E00DC33A1
:00000001FF
